:020000040800F2
:10000000E87E00200DD501080DD501080DD50108A9
:100010000DD501080DD501080DD501080DD5010834
:100020000000000000000000000000000DD50108E5
:100030000DD5010800000000E10500080DD50108FC
:100040000DD501080DD501080DD501080DD5010804
:100050000DD501080DD501080DD501080DD50108F4
:100060000DD501080DD501080DD501080DD50108E4
:100070000DD501080DD501080DD501080DD50108D4
:1004000000F002F800F0A9F80AA090E8000C82447D
:100410008344AAF10107DA4501D100F09EF8AFF25A
:10042000090EBAE80F0013F0010F18BFFB1A43F0D2
:100430000103184744690500746905000A444FF038
:10044000000C10F8013B13F0070408BF10F8014B33
:100450001D1108BF10F8015B641E05D010F8016B78
:10046000641E01F8016BF9D113F0080F1EBF10F8DC
:10047000014BAD1C0C1B09D16D1E58BF01F801CBFF
:10048000FAD505E014F8016B01F8016B6D1EF9D582
:100490009142D6D370470000103A24BF78C878C183
:1004A000FAD8520724BF30C830C144BF04680C607A
:1004B000704700000023002400250026103A28BFC2
:1004C00078C1FBD8520728BF30C148BF0B607047C6
:1004D0006E2900F0B182702900F0808366290FF048
:1004E00017A165290FF014A167290FF011A1612947
:1004F0000FF010A1692900F06382642900F0608286
:10050000752900F05D826F2900F00C83782900F0D6
:1005100058830368DB0928BF41F08001632901F09B
:100520004685732901F04B85E32901F056850020AB
:1005300070471FB54FF0DFF802F084FB0400002085
:1005400000214EF005FB401C6060002000214EF0B1
:1005500015FBE0601FBD10B510BD02F065FE114631
:10056000FFF7E7FF03F0FEFC03F0BFF803B4FFF76B
:10057000F2FF03BC18F000F9EFF3108072B6704779
:1005800080F31088704772B6704762B67047EFF319
:10059000058008B14FF001007047EFF310807047FD
:1005A000EFF305807047EFF305804FF003014FF044
:1005B0000602884204DB904202DC4FF001007047E3
:1005C0004FF0000070470000002804D090FAA0F01F
:1005D000B0FA80F0401C7047EFF3098070470000CC
:1005E00001484068806B0047000000201EF0040FA7
:1005F0000CBFEFF30880EFF309801EF0100F08BF67
:1006000020ED108B20E9F04F1EF0040F0CBF80F39B
:10061000088880F30988EFF30881EFF3098200B5B9
:100620002FF0A0FB5DF804EB7047000027484FF067
:10063000805101607047EFF3108C72B6244908684E
:10064000A8B1EFF309831EF0100F08BF23ED108B44
:1006500023E9F04F03604FF00402838923EA020389
:1006600083812DE902103EF027FCBDE80210194BF2
:100670001A68136800F036B81EF0100F08BF00F0BB
:1006800036B883F309880A604FF00400938943EA7F
:10069000000393818CF3108870470F480F49D0F8FE
:1006A000002041EA02010160EFF3148222F004020B
:1006B00082F314880A48006880F3088803484FF0E2
:1006C0008051016061B662B6FEE7000004ED00E013
:1006D000540600205806002020ED00E00000FFFF37
:1006E000E400002030CBB3E8C04FFFF7C5BFB3EC48
:1006F000088BB3EC08CBFFF7C4BF00000948804764
:1007000009480047FEE7FEE7FEE7FEE7FEE7FEE7F3
:10071000FEE7FEE7FEE7FEE704480549054A064B0B
:1007200070470000CDEE000801040008E86C0020CE
:10073000E87E0020E86E0020E86E002070477047D9
:10074000704753EA020C00F069802DE9F04B4FF03E
:100750000006002B1FBFB3FA83F503FA05F424FA51
:1007600005F65E4012BF1643B2FA82F502FA05F4AE
:10077000C5F120051EBF22FA05FC44EA0C04203511
:1007800056EA044C4FEA144418BF641C4FF00008AA
:100790004FF00009904271EB030C39D3002919BFC7
:1007A000B1FA81F701FA07F6B0FA80F700FA07F616
:1007B000C7F120071EBF20FA07FC46EA0C062037C7
:1007C000B6FBF4FCA7EB0507103F07F01F0BCBF1BE
:1007D00020060CFA0BFB2CFA06F644BFB3460026A3
:1007E000202FA4BF5E464FF0000B5BEA060C08BF4B
:1007F0004FF0010B19EB0B09ABFB027C48EB060831
:10080000C01B06FB02CC0BFB03CC71EB0C01C1E758
:100810000B46024641464846BDE8F08B13B54FF003
:1008200000004FF00001AFF30080BDE81C407047AE
:10083000B2F120030AD5C2F1200301FA02F120FA35
:1008400003F300FA02F041EA0301704700FA03F1F2
:100850004FF000007047B2F120030AD5C2F1200327
:1008600020FA02F001FA03F321FA02F140EA030050
:10087000704721FA03F04FF00001704710B54C109B
:1008800084EA530404D54042C1F1000138BF491E37
:100890001B4204D55242C3F1000338BF5B1EFFF771
:1008A00050FF14F0804F04D04042C1F1000138BF26
:1008B000491E14F0004F04D05242C3F1000338BF68
:1008C0005B1E10BD0FB47CB50C0009AA009001D0CE
:1008D0002044401E084B7B4469460190089801F073
:1008E0003CFB05461CB10020694601F049FB284647
:1008F0007CBC5DF814FB0000B116000070B5044626
:1009000085690068C10601D5302600E02026C007B1
:1009100007D070BDD4E9012130469047206A401CC1
:1009200020626D1EF6D570BD70B5044685690078ED
:10093000C00707D170BDD4E9012120209047206A6B
:10094000401C20626D1EF6D570BD09684A0501D5B0
:1009500040B27047C905FCD500B2704709684A0526
:1009600001D5C0B27047C905FCD580B2704770B5DB
:100970000C460546012A05D02878800600D5EA698C
:10098000002302E0012305E05B1C934202D2E05CFD
:100990000028F9D1A869E618C01AA861286A184485
:1009A00028622846FFF7AAFF04E0D5E9012114F8E0
:1009B000010B9047B442F8D32846FFF7B5FF70BD4E
:1009C0002DE9F0410646002410687529314616A528
:1009D00010D0FFF7BAFF002802DA404213A507E063
:1009E00031688A0701D512A502E0490704D511A58F
:1009F000012401E0FFF7B2FF00210A2206F12407DB
:100A000009E0B0FBF2FCB0FBF2F302FB1C0030305B
:100A100078541846491C0028F3D123462A4630460C
:100A2000BDE8F04100F0A6BE000000002D0000006F
:100A30002B0000002000000011680268006A5305C6
:100A400001D508700AE0D30501D5088006E0130639
:100A500003D5C217C1E9000200E008600120704719
:100A60002DE9FF5F15468A460446DFF8AC80F8445E
:100A70000027D8E900103E46CDE9001010E03AF812
:100A800016106A4602A802F024F8411C07D021780B
:100A9000890603D5E269391891420DD80744761CBE
:100AA0002078800602D5E069B84205DDAE42E6DB7B
:100AB0003AF816000028E2D1A069C01BA0612046C8
:100AC000FFF71CFFD8E90010CDE90010002017E067
:100AD0003AF818106A4602A801F0FBFFB0F1FF3F98
:100AE00081460BD000250DF1080B05E0D4E901216A
:100AF0001BF8050090476D1C4D45F7D308F1010028
:100B0000B0428046E4DB206A384420622046FFF78A
:100B10000BFF00F003B80000BE3705003FBCBDE886
:100B2000C09F000070B5044621461068FFF716FF0D
:100B3000002104F1240505E000F007023032C0086E
:100B40006A54491C0028F7D12068002307A2050732
:100B500007D5800600D421B1E069012304A2401E1C
:100B6000E0612046BDE8704000F004BE00000000D7
:100B700030000000F0B40D460188090502D51B4C79
:100B80007C4402E0194C7C440E34002100F1240323
:100B900005E002F00F061209A65D5E54491C002A0A
:100BA000F7D102780023120704D5702D06D009B1C1
:100BB000022311342246F0BC00F0DCBD01231034C6
:100BC000F8E770B504460D4621461068FFF7C6FEEB
:100BD000024629462046BDE87040CBE7036812680C
:100BE00043F0200303600823C361C3E7B436050064
:100BF0002DE9F05F894604464FF0000ADFF874B132
:100C0000FB44C0F820A02046E1688847002874D043
:100C1000252806D0D4E901219047206A401C206293
:100C2000F1E700265F462046E16888472028054610
:100C300007DB312D05D2781910F8200C08B10643D6
:100C4000F1E7B00701D526F00406C4F81CA0002780
:100C5000C4F818A02A2D09D0284612F0ECFE38B3AB
:100C600004EB8708303DC8F8185019E059F8041B08
:100C7000204604EB87029161E1688847012F054611
:100C800018D1E069002820DA26F020061DE0D8F807
:100C9000180000EB800005EB40003038C8F8180061
:100CA0002046E1688847054612F0C5FE0028EED1CF
:100CB000012F0AD02E2D08D12046E16888477F1CDD
:100CC0000546022F46F02006C4DBA069002803DA9F
:100CD000404246F00106A061F00701D026F0100660
:100CE0006C2D0BD0682D09D04C2D39D06A2D35D004
:100CF000742D35D07A2D33D016E038E0E1682F46D8
:100D000020468847B842054609D16C2F26D04FF4BB
:100D10008060E168064320468847054604E06C2F62
:100D20001AD04FF4807006430DB3A5F14100192885
:100D300002D8203546F400664A46294620462660F9
:100D40004E46FFF7C5FB80B101280BD0F61D26F0FB
:100D5000070000F1080956E74020E4E78020D8E7C3
:100D60000020D6E706F104094DE7284652E7206A3D
:100D700000F002B85C36050030BCBDE8C09F000042
:100D800000B58DB0099000920B904FF0FF300A90A3
:100D900000200C90054878440690054878446A463F
:100DA000079009A801F06CFC0DB000BD0719000008
:100DB0001F1900000FB400B58DB010A90990009163
:100DC0000B904FF0FF300A9000200C9006487844BA
:100DD0000690064878446A4607900F9909A801F0E2
:100DE0004FFC0DB05DF814FBCF180000E7180000B1
:100DF0002DE9FF5F1D464FF0FF3B91464FF0000885
:100E00005F46D5E90146A96901987F1C8847296A90
:100E1000824688470028F6D1BAF1FF3F0CD0002E59
:100E200024F4C06419DD600614D5BAF12B0F09D083
:100E3000BAF12D0F0ED103E0584604B000F07EB891
:100E400044F48064A96901987F1C8847761E824615
:100E5000002E02DDBAF1300F03D0B9F1000F26D019
:100E600032E0A969761E01987F1C44F4007488471B
:100E7000002E824605DDBAF1780F06D0BAF1580F80
:100E800003D0B9F1000F10D01EE0B9F1000F02D06D
:100E9000B9F1100F18D1A969761E01987F1C24F4AE
:100EA000007488478246102002E0082000E00A20F3
:100EB000814609E0A96908FB0908761E01987F1C94
:100EC00044F4007488478246002E05DD49465046AA
:100ED00001F08FF80028EDDAE96901988847A0054C
:100EE00002D46FF00100A8E7E00725D1600613D512
:100EF000600502D5C8F1000000E0404629680A1DDF
:100F00002A600968220501D5087015E0220701D57D
:100F1000088011E008600FE02868011D2960006862
:100F2000210502D580F8008006E0210702D5A0F84F
:100F3000008001E0C0F8008038467EE730BCBDE8A4
:100F4000C09F2DE9FF5F4FF00008994614464646C2
:100F50009169D2E901A7DDF838B0019888470546C4
:100F600059EA0B0005D009E0A1690198761C884771
:100F70000546216A284688470028F5D1681C03D019
:100F80005FEACA7005D015E04FF0FF3004B000F002
:100F900048B82068011D2160D0F800800AE05FEAAF
:100FA000CA7001D108F8015BA169761C01987F1E07
:100FB00088470546002F1ADD681C18D0B9F1000FCC
:100FC0000DD0E81705EBD060421120F01F0059F852
:100FD00022102A1A012090400142E0D107E0BBF123
:100FE000000FDCD12846216A88470028D7D0E16964
:100FF00001988847BBF1000F07D1002E05DD5FEA9D
:10100000CA7002D1002188F80010A068B84203DD40
:10101000BBF1000F03D017B16FF00100B6E7304607
:10102000B4E730BCBDE8C09F70B5064610F050FF75
:101030000468054630460A22002101F0A3FB2C601B
:1010400070BD2DE9F05F93460F46804604460026AA
:1010500010F03EFFD0F80090824614F8015B2DB1ED
:1010600000F080FB0068405DC007F6D12B2D02D058
:101070002D2D1AD0641E0021CAF800105A46394698
:10108000204601F02DFB014627B13868A04201D16E
:10109000C7F80080DAF80000022809D0CAF80090EA
:1010A000700505D5484200F005B846F48066E2E7D1
:1010B0000846F8E730BCBDE8C09F401ECAB210F831
:1010C000011F8A4202D00029F9D10020704710B5D3
:1010D000431E13F8014F002CFBD105E011F8014B22
:1010E000002C03F8014B03D0521EF7D200211970D7
:1010F00010BD30B505460B462A4613F8014B12F8D1
:10110000010B08B1A042F8D01CB1002802D06D1C20
:10111000F1E7284630BD40EA010310B59B070FD127
:10112000042A0DD310C808C9121F9C42F8D020BA57
:1011300019BA884201D9012010BD4FF0FF3010BD0F
:101140001AB1D30703D0521C07E0002010BD10F8DD
:10115000013B11F8014B1B1B07D110F8013B11F8A3
:10116000014B1B1B01D1921EF1D1184610BD40EA64
:101170000103024630B59B0710D14FF0013400E067
:1011800008C208C91D1B9D4315EAC41FF8D013F0FF
:10119000FF0102F8011B0DD01B0AF8E711F8013B13
:1011A000002B02F8013B05D011F8013B002B02F89F
:1011B000013BF3D130BD0022CBB210F8011B9942A4
:1011C00000D1421E0029F8D11046704710B5431CCB
:1011D00002E010F8011B71B18107FAD14FF0013222
:1011E00002C88C1A8C4314EAC211F9D0C01A0A063C
:1011F00003D0C01E10BDC01A10BD0A0401D0801E4D
:1012000010BD0902FCD0401E10BD40EA010370B5BC
:101210009B072ED14FF00136042A2AD308C810C9E3
:101220009D1B9D43121F15EAC61517D0D8B2E1B217
:10123000401A50EA056110D198B2A1B2401A50EAA2
:1012400005410AD123F07F4024F07F41401A50EA43
:10125000052102D1180EA0EB146070BDA342DBD0B3
:1012600018BA21BA884201D9012070BD4FF0FF3071
:1012700070BD0AB9002070BD10F8013B11F8014B98
:1012800063B1A3420AD1521E08D010F8013B11F8F5
:10129000014B1BB1A34201D1521EEDD1181B70BDF1
:1012A000421E12F8013F002BFBD111F8013B002B2D
:1012B00002F8013BF9D17047032A40F2308010F068
:1012C000030C00F0158011F8013BBCF1020F6244E1
:1012D00098BF11F801CB00F8013B38BF11F8013B72
:1012E000A2F1040298BF00F801CB38BF00F8013B1F
:1012F00011F0030300F06780083AC0F0088051F84D
:10130000043B083A51F804CBA0E80810F5E7121D99
:101310005CBF51F8043B40F8043BAFF30080D207B8
:1013200024BF11F8013B11F801CB48BF11F8012B84
:1013300024BF00F8013B00F801CB48BF00F8012BA7
:101340007047431A28BF9A427FF6B6AF032A10446B
:10135000114440F2268010F0030F1EBF11F8013D2A
:10136000521E00F8013D10F0030F7FF4F6AF11F0AC
:10137000030301F0E183083AC0F00B8051F8043D0B
:10138000083A51F804CD40F8043D40F804CDFFF789
:10139000F3BF121D5CBF51F8043D40F8043DAFF3AC
:1013A0000080D20724BF11F8013D11F801CD48BFDC
:1013B00011F8012C24BF00F8013D00F801CD48BF11
:1013C00000F8012C704710B5203AC0F00B80B1E84E
:1013D0001850203AA0E81850B1E81850A0E818506A
:1013E000BFF4F5AF5FEA027C24BFB1E81850A0E873
:1013F000185044BF18C918C0BDE810405FEA827C8D
:1014000024BF51F8043B40F8043B08BF7047D207A3
:1014100028BF31F8023B48BF11F8012B28BF20F844
:10142000023B48BF00F8012B704702F0FF0343EA7C
:10143000032242EA024200F002B84FF000020429FF
:10144000C0F0128010F0030C00F01B80CCF1040CF3
:10145000BCF1020F18BF00F8012BA8BF20F8022B27
:10146000A1EB0C0100F00DB85FEAC17C24BF00F8CD
:10147000012B00F8012B48BF00F8012B70474FF0FB
:10148000000200B5134694469646203922BFA0E8D4
:101490000C50A0E80C50B1F12001BFF4F7AF0907E0
:1014A00028BFA0E80C5048BF0CC05DF804EB8900D1
:1014B00028BF40F8042B08BF704748BF20F8022B14
:1014C00011F0804F18BF00F8012B704710B504468B
:1014D00010F0030F08BF11F0030F40F015804FF01C
:1014E000013E121FC0F20E8051F8043BA3EB0E0C1C
:1014F0002CEA030C1CEACE1C08BF40F8043BF0D0D9
:10150000A1F1040102F10402521E08DB11F8013BB3
:10151000002B00F8013BF7D11146FFF78EFF204664
:1015200010BD00004FF0013C50F8042B51F8043B73
:101530009A4221D1A2EB0C03934313EACC1317D1A7
:1015400050F8042B51F8043B9A4215D1A2EB0C033E
:10155000934313EACC130BD150F8042B51F8043BFE
:101560009A4209D1A2EB0C03934313EACC13DBD0CC
:101570004FF00000704700BFD01A01BAB1FA81F1F4
:1015800001F0180122FA01F0CB40C1F12001DBB2D9
:10159000C0B2C01A2CFA01F3D11A914311EAC31157
:1015A000E6D17047014901F0F1BA00005C6C0020FF
:1015B00010B503681C1404EB21449BB289B2194492
:1015C00094FBF2F302FB134394FBF2F401EB0343AD
:1015D00093FBF2F102FB113193FBF2F301E05B1E8E
:1015E00011440029FBDB016003EB044010BDF0B5A2
:1015F00004464FF0FF3585B00068049060680290A3
:10160000A0680390E068019020690090666906F187
:101610008040B0F1004F7CD83C22002104A8FFF7A5
:10162000C7FF3C22014602A8FFF7C2FF182201466D
:1016300003A8FFF7BDFF411E40F2B55201A8FFF716
:10164000B7FF0C22074668460021FFF7B1FF414B68
:1016500000EB8700304400267B4411E0511A0191D1
:101660000099491C0229009102D00C2908D105E0FB
:10167000810705D00199491C019101E0401C0096A9
:101680000099019A595C9142E8DD0099012906D13F
:101690001C2A04D1810702D00221CDE90016A0F155
:1016A00046018B293CD2DDE90061002202E09F5C0B
:1016B000521C3944B242FADB012E02DD820700D00F
:1016C000491E40F2B55340F26D16C21700EB9272FC
:1016D00092105A4300F0030303FB062283070A44D7
:1016E00000D1521E039E02EB4203049F06EBC3038C
:1016F000029EC3EB031306EB8303174E33441E1401
:101700009BB2C6EB0616C3EB0313B60007EB8303CD
:1017100000E005E006EB134666F31F43360C02D0EB
:10172000284605B0F0BD80C4029E40C4039E40C45C
:10173000019E761C44F80C6B009E44E90260072071
:10174000521C92FBF0F600FB162084E8230018469A
:10175000E7E700003B2C0500A039CEFD704770473D
:101760007047000010B501F06DFA001D10BD00BFFC
:10177000E1D304002DE9F0470D4699469246044610
:1017800000F124080168880604D5E06921F0100101
:10179000216000E00120A84201DD471B00E0002796
:1017A000A1697A1902EB0900081AA0612078C00625
:1017B00002D42046FFF7A2F8002608E0D4E9012170
:1017C0001AF806009047206A401C761C20624E459D
:1017D000F4DB2078C0060AD52046FFF78FF806E034
:1017E000D4E9012130209047206A401C2062381E35
:1017F000A7F10107F4DC07E0D4E9012118F805009E
:101800009047206A401C2062281EA5F10105F3DCE8
:101810002046FFF789F82078000602D50220BDE8AF
:10182000F0870120FBE770472DE9FF4F0C461E466D
:101830004FF0FF378BB0D2E90001DDF860800A90ED
:101840008A46C1F30A5505B93D46002108464FF0C6
:101850000000BAF1000F00F4400005DA00EB800050
:101860004FF4400101EA50004FEA9059B9F1010FDD
:1018700000DDB9460A9850EA4A000ED044F61050EE
:10188000A5F2FF3545432F14B8F1000F1ED0754265
:10189000291E1EDDC9F100021CE0B8F1010F4FF056
:1018A000000001D0302103E0F24305E02154401C48
:1018B000B042FBDB30460022002121540B99C1F8D5
:1018C0000880C1E900200FB000F0BCB9BD1B6D1C41
:1018D000DEE74A4600DA694206A801F011FC06ABD1
:1018E00093E8070003AB83E8070050460A9901F02C
:1018F00005FF8DE80700A0F500501F380090039801
:10190000002D0ADD42F21F014A460844002303A9C4
:101910000390684602F0B0F909E0A0F500504A468D
:101920001F38002303A90390684602F0CFF98DE821
:1019300007000004000C03D04FF0FF30410800E026
:101940001046B8F1000F03D00022009215461EE0A9
:10195000751E05D401F07AF9303262556D1EF9D545
:10196000B3460122084302D000227F1C04E0207805
:10197000302801D100227F1E002A099784D01DE063
:10198000112D07DA01F062F9303262556D1C50EA10
:101990000102F5D1084302D00098C8B10EE0002141
:1019A000681E05E0235C625C63542254401E491C9F
:1019B0008142F7DBAB46A81B401E0990002004F8CB
:1019C0000B000B98099AC0F80880C0E9002B7AE751
:1019D00011264FF0000857E72DE9F04F88460446DE
:1019E000D21D22F0070191B0D1E90001CDE90A0131
:1019F00010F03AFA02460B98C00F01D02D2007E0F4
:101A00002068810701D52B2002E0202101EAC000D7
:101A1000032A099001D0072A05DB034641462046E8
:101A200001F062F90BE12078800601D5E06900E061
:101A30000620B8F1650F814606D0B8F1660F18D0C0
:101A4000B8F1670F70D131E00020B9F1110F0090AB
:101A500001DB112301E009F101030AAA01A90CA885
:101A6000FFF7E2FEDDE90C70002609F1010583466F
:101A700047E001204B4600904FF000470AAA01A919
:101A80000CA8FFF7D1FEDDE90DB00C995D460026EC
:101A900010B909F101000D18B9EB050003D4C0F12C
:101AA000FF3609F10105A5EB09002BE0B9F1010FA3
:101AB00001DA4FF001090020B9F1110F00904846FA
:101AC00001DD112300E003460AAA01A90CA8FFF7D3
:101AD000ABFEDDE90C704D460026834620780007FA
:101AE0000AD4AB4500DA5D4601A8012D04DD411999
:101AF00011F8011C302907D04F4502DA17F1040F05
:101B000004DA012082460FE06D1EEEE7002F02DCB2
:101B1000ED1B3E4403E0781CA84200DD7D1CB81B91
:101B200000F1010A4FF000472078000703D4AA45CE
:101B300001DB4FF0FF3A0021B7F1004F0DF14308F0
:101B40008DF8431024D002202B23002F01DA7F428E
:101B50002D230A21021EA0F1010000DC5FB197FBDA
:101B6000F1FC97FBF1F201FB1C7C17460CF1300CE9
:101B700008F801CDEEE7A8F10100037021880905FE
:101B800001D5452100E06521A0F1010800F8011C04
:101B900009980FA9A1EB0807FF1D00B10120411909
:101BA00001EBEA70A1693844081A401EA061207850
:101BB000C00602D42046FEF7A1FE099828B1D4E958
:101BC00001219047206A401C20622078C00622D55F
:101BD0002046FEF793FE1EE0002E04DBB34502DD37
:101BE00001A8805D00E03020D4E901219047206AFF
:101BF000401C2062761CAAF101005FEA000A0AD1AB
:101C000001F020F8C0680168405CD4E901219047E8
:101C1000206A401C2062281EA5F10105DCDC07E0DB
:101C2000D4E9012118F8010B9047206A401C20627A
:101C3000381EA7F10107F3DC2046FEF775FE0320EE
:101C400011B041E630BCBDE8C08F00002DE9F04F77
:101C500004460D46D21D22F0070089B0D0E9009756
:101C60004846394610F000F90246F80F01D02D23FE
:101C700007E02068810701D52B2302E0202101EA3B
:101C8000C0038DF820300BB1012000E00020032AB2
:101C9000824601D0072A04DB2946204601F024F8B9
:101CA0003FE12078800601D40D2500E0E569C7F307
:101CB0000A560D2D49DA00214FEA175B08464FF00E
:101CC0000000002F00F4400007DA00EB80004FF422
:101CD000400100EBD07001EA60008115012901DDAF
:101CE0004FF0FF3100224FEA850CBCF1180F06D3EC
:101CF0001346ACF118004FF08052C24003E04FF49D
:101D0000801323FA0CF30CF10C0CBCF1200F04D35C
:101D1000ACF1200C09FA0CF001E007FA0CF00029F4
:101D20004FF0004801DD18B90FE00ED140450CD34B
:101D300019EB02095F4121B9404502D19F4329EACD
:101D40000209BBEB175F00D0761C2088000502D586
:101D50007B48784402E07A487844193808AA30234E
:101D600002F80A30037C0AF10101002E0AF1020A8E
:101D700053546A4602DC4FF0300101E04FF031016C
:101D80004FF001088DF8001002D0A6F2FF3603E0F4
:101D900059EA470100D06B4E002D02DC217809077B
:101DA00004D54FF002082E218DF80110C446002101
:101DB0000BE0C7F303433F01C35C491C6D1E02F8EF
:101DC0000830052908F1010801DA002DF1DC0021B5
:101DD0000CE000EB1973491C1B786D1E082902F8F2
:101DE00008304FEA091908F1010801DA002DF0DC8A
:101DF00021688B0602D516E0A8F10108E04505DD53
:101E000002EB080313F8013C302BF5D0B8F1000FBA
:101E100009DD02EB080313F8013C2E2B03D109075F
:101E200001D4A8F10108002D05DD3E2102F80810BB
:101E30006D1E08F10108407C002E02F8080008F130
:101E4000010804DA2D20764202F8080002E02B2077
:101E500002F808000A214FF47A70864208F101085E
:101E60000BDB96FBF0F3303302F8083096FBF0F30F
:101E700008F1010800FB136601E0642E0CDB64200E
:101E800096FBF0F3303302F8083096FBF0F308F1DC
:101E9000010800FB136601E00A2E06DB96FBF1F059
:101EA000303002F8080008F1010896FBF1F001FB60
:101EB0001060303002F80800A16908F1010808EB51
:101EC000050202EB0A00081AA0612078C00602D4BD
:101ED0002046FEF713FD216A08AE01EB0A002062DE
:101EE00004E0D4E9012116F8010B9047BAF1010A88
:101EF000F7D22078C00602D52046FEF7FFFC6E46DA
:101F000009E016F8010B3E280FD0D4E901219047D3
:101F1000206A401C2062B8F10108F2D22046FEF788
:101F200003FD09B0032000F00FB8206A28442062A6
:101F300003E0D4E90121302090476D1EEBD3F8E790
:101F40002E25050002FCFFFF30BCBDE8C08F00005D
:101F500001694A1C02610878704700B58FB0CDE96D
:101F600001310021059105497944CDE9031011465D
:101F70006846FEF73DFE0FB000BD0000E5FFFFFF25
:101F80000A6802F8010B0A607047D1E900239A42FF
:101F900002D2531C0B601070704710B5436913B127
:101FA000AFF3008001E0FEF7E2FC012010BD1278E3
:101FB00000F124010A7000224A700122EDE7116845
:101FC0004FF0FF32E9E710B5436913B1AFF300807A
:101FD00001E0FEF745FD012010BD128800F124014B
:101FE00082840022C2840122EDE711684FF0FF32A3
:101FF000E9E73A2800D2303820F02002412A01D304
:10200000A2F13700884201D34FF0FF3070472DE92D
:10201000FF4F1C4691464FF0FF3581B000218A46A4
:102020008846D4E90167A16902986D1C8847216A36
:10203000834688470028F6D1BBF1FF3F0CD0002F24
:1020400026F4C0661ADD700615D5BBF12B0F0AD039
:10205000BBF12D0F0FD104E04FF0FF3005B000F0C1
:1020600081B846F48066A16902986D1C88477F1E7E
:102070008346002F02DDBBF1300F03D0B9F1000F12
:102080002AD025E0A1696D1C02987F1E46F40076D7
:102090008847002F834605DDBBF1780F06D0BBF1E2
:1020A000580F03D0B9F1000F10D011E0B9F1000FB3
:1020B00002D0B9F1100F0BD1A1696D1C02987F1EDF
:1020C00026F4007688478346102000E008208146E9
:1020D0004FEAE970009017E00A20F8E74346AAFBB0
:1020E0000928DDF800C07F1E03FB098046F4007656
:1020F00005F101050AFB0C0112EB0B0A029841EBFA
:10210000EB78A16988478346002F06DD494658468B
:10211000FFF76FFF5FEA000BE0D5E169029888479F
:10212000B00502D46FF0010098E7F00718D17006EF
:1021300010D55146700505D50023D1EB030163EBA3
:10214000080200E042462068031D23600068C0E9E1
:10215000001205E02068011D21600068C0E900A8A8
:1021600028467BE730BCBDE8C08F00002DE9FF4F5B
:1021700006468BB00878FF2806D0491C2D2805D0CC
:1021800000244FF0000908E000200CE00124F8E7EB
:1021900009EB8903491C00EB43090878FF28F7D1B4
:1021A00014B1C9F100008146107800252C46AA46DA
:1021B00029462D2801D02B2804D1521C2D2813D0BC
:1021C000002082468B461078FF280FD04FF0000C7D
:1021D0000A21521CA5FB017804FB018105FB0C11AF
:1021E000C5194BEB0104EEE70120EAE700210846A0
:1021F0004FF00000BAF1000F02D000EB8000400861
:10220000C0F38157012F01DD4FF0FF370E9955EADA
:10221000040009EB01080BD04FF0020918F5FA7F12
:1022200016DA4FEACA70002F706008DD012007E05F
:102230004FEACA70C6E900B00FB000F013BA002030
:1022400030600FF045FEC0F800901821084616E0F7
:10225000B8F5FA7F18DD002F02DAF748784401E07C
:10226000F6487844D0E90010C6E9001040EACA7088
:1022700070600FF02DFEC0F80090142108460FB0DA
:1022800000F0F3B94DF041BA002108464FF00000CC
:10229000B8F10001099002DAC7F1000200E03A4605
:1022A00001DAC8F1000106A800F02AFF06AB93E8A6
:1022B000070003AB83E8070044F23E005BEA040139
:1022C0000090584604D144F21E012C465D46009110
:1022D000210C0904014306D10099240444EA154461
:1022E0002D041039009104F07F41014306D100997B
:1022F000240244EA15642D020839009104F070416B
:10230000014306D10099240144EA15742D01091FE7
:10231000009104F04041014306D10099A40044EA31
:102320009574AD00891E009104F00041084304D16A
:1023300000986D196441401E00904FF001033A4629
:102340006846B8F1000FCDE9014503A902DD01F0AF
:10235000D2FC01E001F0A5FCBAF1000F04460D46E5
:1023600001D084F00044002108464FF00000099994
:1023700040F2FF77484010F00C0F07D124F00040E6
:10238000284303D0C4F30A50B84212D10FF0A0FD85
:10239000C0F80090C4F30A50B8420AD1A848784463
:1023A000D0E90010C6E9001004F000410843706055
:1023B00042E7C6E900543FE72DE9FF4F1F464FF0C3
:1023C000000A4FF0FF38454691B0D7E90146CDF8F5
:1023D0003CA000F037FCC0680168405C1090B9690F
:1023E00012986D1C8847396A814688470028F6D1C3
:1023F000B9F1FF3F0AD0002E24F4D06411DDB9F109
:102400002B0F08D0B9F12D0F0BD102E0404615B0CB
:1024100013E744F48064B96912986D1C8847761EEE
:102420008146600504A901D52D2000E02B20002E57
:1024300001F1010B0DF130088DF810003FDDB9F10D
:10244000690F08D0B9F1490F05D0B9F16E0F02D06C
:10245000B9F14E0F1CD13B4601A8009580E850020F
:10246000DDE912126FF002004DF0BAF9C11CCED1B5
:102470000EE0B96912986D1C884781461398761E44
:1024800044F4007405600F98401C002E0F9016DD78
:10249000B9F1300FEDD0B9F1780F02D0B9F1580F82
:1024A0000DD10F9801280AD13B46CDE90054DDE952
:1024B0001212001F02964DF091F9C11CA7D110997C
:1024C00089453ED144F0800406E01399681CAAF1C6
:1024D000010A44F400740860B9696D1C1298761EF4
:1024E000884730288146F0D02BE01099894505D1E6
:1024F000200603D4761E44F0800418E0484611F00C
:102500009AFA08B3761E0DF123018B4544F400744A
:1025100008D2A9F130000BF8010B200607D5AAF16B
:10252000010003E0200602D40AF101008246A00562
:1025300002D51399681C0860B96912986D1C884708
:102540008146002ED1DC53E0002E51DDB9F1650F3C
:1025500002D0B9F1450F4BD1A00549D5B9696D1C21
:102560001298761E24F440748847002E81460CDDB4
:102570002B2804D0B9F12D0F07D144F48074B96928
:1025800012986D1C8847761E8146E00501D52D21E5
:1025900000E02B2108F8011BCDF8008021E0761E19
:1025A0000DF13901884544F400740CD2A9F13000D2
:1025B00010F0FF0088F8000002D10099884509D981
:1025C00008F1010806E0E00501D51E4801E042F2ED
:1025D0000F708246B96912986D1C8847814613981E
:1025E0000560002E04DD484611F025FA0028D6D1FA
:1025F000F96912988847FF2053468BF8000088F845
:10260000000000200A900B9004AA0CA90AA8FFF76A
:10261000ADFDA00502D46FF00100F8E614F0240F20
:1026200012D0E0071CD13868DDE90A12031D3B60B7
:102630000068C0E9001213E0504B0500424B050052
:10264000064A0500F1D8FFFF0AA968460FF0C0FD51
:10265000E00705D13868009A011D39600068026002
:102660002846D4E630BCBDE8C08F30BCBDE8C04FC2
:10267000FFF708BE026811441378016018467047DE
:10268000D1600549794451610449794411620021BE
:102690001161114600F068BBEDFFFFFF4906000025
:1026A000426842B1016811F8013B23B1521EC0E9F2
:1026B0000012184670470121C160881E70474268A9
:1026C0005AB1C368016843B983688B4205D0491E7B
:1026D000521CC0E90012002070474FF0FF307047D5
:1026E0002DE9F05F824615468B4600270AF101046A
:1026F000B9460078302801D09DB113E014F8010BE1
:102700000127782803D0582801D045B10AE00DB13F
:10271000102D07D1002714F8010B102502E0082521
:1027200000E00A250026B0460EE005FB080005FB88
:1027300006F101271FFA80F801EB1046B6F5803F3D
:1027400000D3B94614F8010B2946FFF752FC0028C4
:10275000EBDABBF1000F05D00FB1641E00E0544668
:10276000CBF80040B9F1000F06D00FF0B1FB022109
:102770000160C81E00F003B848EA0640FAE730BC22
:10278000BDE8C09F2DE9F04791460F4680460446BC
:10279000002614F8015B2DB1FEF7E4FF0068405DF0
:1027A000C007F6D12B2D02D02D2D18D0641E4A461D
:1027B00039462046FFF794FF27B13968A14201D17D
:1027C000C7F800804FF0020471050BD54042002885
:1027D00003DD0FF07DFB0460A007BDE8F08746F441
:1027E0008066E4E70028F8DA0FF072FB04606FF00F
:1027F0000040F2E72DE9FF4F4FF000089A461446DB
:10280000C146464683B0D2E901B7CDF80080CDF885
:102810000480916904988847109905465AEA010096
:1028200005D009E0A1690498761C88470546216A0D
:10283000284688470028F5D1681C03D05FEACB7092
:1028400005D02AE04FF0FF3007B000F05DB82068F7
:10285000011D2160D0F800801FE002A86A46E9B29D
:1028600000F0C0FC411C07D0801C09D04FF00009CB
:102870005FEACB7007D00AE0E169049888473EE040
:102880004FF0010904E0BDF8081028F8021B7F1E74
:10289000A1690498761C88470546002F1ADD681C3C
:1028A00018D0BAF1000F0DD0E81705EBD060421137
:1028B00020F01F005AF822102A1A012090400142ED
:1028C000CBD107E010980028C7D12846216A884755
:1028D0000028C2D0E16904988847B9F1000F0ED1F1
:1028E000109830B9002E04DD5FEACB7001D1A8F852
:1028F0000000A068B84202DD109818B117B16FF05F
:102900000100A1E730469FE730BCBDE8C08F2DE94C
:10291000FF4F4FF000089B461446454683B0D2E96E
:102920000196CDF80080CDF804809169DDF848A0CB
:102930000498884707465BEA0A0005D009E0A169C8
:1029400004986D1C88470746216A38468847002846
:10295000F5D1781C03D05FEAC97005D01BE04FF0B9
:10296000FF3007B000F047B82068011D2160D0F8A3
:10297000008010E05FEAC97007D16A464046B9B2EC
:1029800000F0A7F8411C31D08044A1696D1C049867
:10299000761E88470746002E14DD781C12D0BBF146
:1029A000000007D03B46DDE9101200F09AFB00283A
:1029B000E0D107E0BAF1000FDCD13846216A884740
:1029C0000028D7D0E16904988847BAF1000F06D1F2
:1029D000002D04DD5FEAC97001D188F80000A0680D
:1029E000B04203DDBAF1000F03D016B16FF0010061
:1029F000B7E72846B5E730BCBDE8C08F2DE9FF5FDB
:102A00009B46144600273D469169D2E90196DDF8C0
:102A100040A00198884780465BEA0A0005D009E09B
:102A2000A16901986D1C88478046216A4046884705
:102A30000028F5D1B8F1FF3F03D05FEAC97005D097
:102A400014E04FF0FF3004B000F040B82068011DE2
:102A5000216007680AE05FEAC97001D127F8028B9C
:102A6000A1696D1C0198761E88478046002E15DDF1
:102A7000B8F1FF3F12D0BBF1000007D04346DDE9BB
:102A80000E1200F02EFB0028E5D107E0BAF1000F8E
:102A9000E1D14046216A88470028DCD0E1690198ED
:102AA0008847BAF1000F05D1002D03DD5FEAC97038
:102AB00000D13880A068B04203DDBAF1000F03D026
:102AC00016B16FF00100BEE72846BCE730BCBDE898
:102AD000C09F70B516460C460546FEF743FE0368D8
:102AE00093F80101012806D0FF2C0FD8185D68B1BA
:102AF00001202C7070BDD3F807013246214603F245
:102B0000071303442846BDE8704018474FF0FF30D4
:102B100070BD431A28BF9A427EF655AC104410F09F
:102B2000030F11441EBF11F8013D521E00F8013D74
:102B300010F0030F7FF4F6AF103AC0F00A8010B522
:102B400031E91850103A20E91850BFF4F9AFBDE848
:102B50001040530724BF31E9081020E9081044BF92
:102B600051F8043D40F8043D12F0030F08BF7047D0
:102B7000D20728BF31F8023D48BF11F8012C28BF09
:102B800020F8023D48BF00F8012C704770B50C4694
:102B9000016800204A1C3ED03C22B1FBF2F302FB4C
:102BA0001313B1FBF2F12360B1FBF2F302FB131339
:102BB000B1FBF2F118226360B1FBF2F302FB1313D5
:102BC000B1FBF2F146F2E0320A440721A360B2FB06
:102BD000F1F301FB132140F2B553B2FBF3F5A16110
:102BE000B2FBF3F103FB15228900B2F5B77F08D3DE
:102BF0009B10521EB2FBF3F52944B2FBF3F503FB25
:102C000015220F4BE261616189077B440CD03B2A9E
:102C10000AD3521C08E02C212046FEF730FC01208C
:102C2000E0600AE0521A401C195C9142FAD9521C29
:102C3000C4E903204FF0FF302062204670BD000041
:102C40008916050000487047A86C002030B5B0F127
:102C50000A024FEA900E71F100034EEA817EB0EB5A
:102C60000E0061EB91014FEA101E4EEA017E10EB5F
:102C70000E0041EB11114FEA102E4EEA016E10EBDF
:102C80000E0041EB11214FEA104E4EEA014E10EBBF
:102C90000E0041EB1141401841F100014FEAD00014
:102CA00040EA41704FEAD10110EB80054FEA810400
:102CB00044EA907444EB01046D1944EB0404521B84
:102CC000A3414FF0000348BF0A3200D530BD401C7D
:102CD00041F1000130BD10B50446FEF743FD006828
:102CE000005D00F0010010BD2DE9F0411F460446D3
:102CF00003260168072A01F4006004DB08B116A569
:102D000005E016A503E008B115A500E015A521F022
:102D100010002060A069C01EA0610FB1401EA0611C
:102D20002046FDF7EBFD4FB1D4E90121384690472D
:102D3000206A401C2062C01C206206E0206AFAE77C
:102D4000D4E9012115F8010B9047761EF8D22046F0
:102D5000FDF7EAFDBDE8F0814E414E006E616E0068
:102D6000494E4600696E66002DE9F34F4FF0000AA8
:102D70000C4656468DB001200C9001F10C000B90D2
:102D800062690B9801219047051E2DD0252D2CD06E
:102D9000216A8847C0B162690B9801219047216A76
:102DA00088470028F7D16269411E0B98904700E0E0
:102DB000761CA1690D988847216A88470028F7D1B9
:102DC000E1690D988847DBE7A1690D988847A8421B
:102DD000074601D1761CD3E7E1690D9888477F1C2F
:102DE00002D1BAF1000F6FD06BE162690B98002736
:102DF0003D46394690472A2804D162690B98012143
:102E000090470125DFF8D08262690B980121904735
:102E1000A0F130010A290AD24745E5DC07EB87011A
:102E200000EB4107303FDFD445F01005ECE7E90641
:102E300001D46FF000476C280AD04C2814D06828C1
:102E400015D06A280DD074281CD07A281AD01DE01D
:102E500062690B98012190476C2802D045F0040567
:102E600014E045F002050DE045F020050AE0626936
:102E70000B9801219047682802D045F0080505E02D
:102E800045F4006562690B9801219047C4E9015738
:102E900065283DD019DC58287AD00CDC452837D07D
:102EA00004DC252826D041289ED131E046282FD0A9
:102EB000472899D12CE05B2877D0612828D0632857
:102EC0007CD0642823D15AE0F6E06F2848D008DC93
:102ED00066281DD067281BD0692821D06E2816D1FE
:102EE00027E0702845D0732868D0752847D0782807
:102EF0000DD14DE0A1690D988847252805463FF47E
:102F000069AFE1690D9888476D1C3FF46AAFD8E05E
:102F10000D9923466A466FF001004CF05DFCC5E058
:102F200045F0400023464FF000026060A80736D409
:102F30003EE0E8077FF447AF2068011D216000688C
:102F4000290501D506701BE7290701D5068017E77B
:102F5000A90703D5F117C0E9006111E706600FE783
:102F600045F0400023464FF008026060A80716D4E1
:102F70001EE040F60E0125EA0100606016E045F013
:102F8000400023464FF00A026060A80707D40FE014
:102F900045F040006060A80708D5234610220D992F
:102FA0006FF00100FFF733F880E007E010222346BE
:102FB0000D996FF00100FDF71BFF77E04FF000095E
:102FC00063284F46C8464B46CB4602D05B2806D006
:102FD00038E0E80601D40120A060012732E06269F0
:102FE000D4F80CB00B98012190475E2807D14FF020
:102FF000010949466269D4F80CB00B9890472169E1
:1030000039B900210A4603AB43F82120491C08299D
:10301000FADBD8B3216949B308F1010862690B985A
:10302000012190475D28F4D1B9F1000F09D00020AB
:1030300003A951F82020D24341F82020401C082841
:10304000F7DB03AB2069002820794FEA40701ED0DF
:103050005B462246CDF80080CDE901970D99002806
:103060006FF0010020DAFFF7C9FC1FE0C11703AAC7
:1030700000EBD1614B1121F01F0102EB8302411AD9
:1030800013680120884003431360C7E719E00D99D6
:10309000224600286FF00100009702DAFFF7AAFB32
:1030A00004E0FDF74EFF01E0FFF731FC00280ADAEB
:1030B000401C06D10C9820B14FF0FF300FB000F04B
:1030C0000DB85046FAE7E90701D10AF1010A0644B2
:1030D00000200C9054E60000CCCCCC0C30BCBDE8F9
:1030E000C08F10B508E030F8024B9C4204D10AB101
:1030F000002010BD012010BD491EF4D2104610BDA5
:103100002DE9F047814616468AB0354878440DC807
:103110008DE80D0032487844801C03AC0DC884E86B
:103120000D0041F69B300844372190FBF1F290FBF3
:10313000F1F5A5F1800501FB12041B3C02D56442A8
:10314000012000E00020DFF898A080460027FA4424
:10315000AAF1BE0A0EE0E0070AD03246684607EB45
:10316000470101230AEB810100F0B0FD8DE8070063
:1031700064107F1C002CEED1194F7F44AE3F19E044
:10318000E80715D007EB04100DF1180A90E80E00BF
:103190008AE80E00C068F04201D1981908903246C2
:1031A000012306A903A800F091FD03AB83E8070003
:1031B0006D10641C002DE3D14FF0010332466946C7
:1031C000B8F1000F03A802D000F056FD01E000F0B6
:1031D0007DFDC9E90001C9F808200AB0BDE8F08703
:1031E0001012050070B516460C460546FEF7BAFAF1
:1031F000036893F80101012804D0185D68B101202B
:103200002C8070BDD3F803013246214603F203132C
:1032100003442846BDE8704018474FF0FF3070BDAA
:1032200000487047886C00207546FFF7F9FFAE46EE
:1032300005006946534620F00700854618B020B5C2
:10324000FDF76AFABDE820404FF000064FF0000796
:103250004FF000084FF0000B21F00701AC46ACE83E
:10326000C009ACE8C009ACE8C009ACE8C0098D46AB
:10327000704710B50EF02CFE006810BD10B5044666
:103280000EF026FE046010BD2DE9FF4F1F464FF0E3
:103290003C0987B04FF00042DDE9141001F101084C
:1032A000DDF858A002EA40500390002005908346C4
:1032B000054604460490B969461E08988847AAF155
:1032C000010A0290BAF1000F3BDD02982E2815D0BA
:1032D0001021FEF78EFE00282EDB4FF0010B059922
:1032E000014317D0B9F1000F0BDB4A46C117FDF7B8
:1032F0009FFA05430C43A9F1040905E0012004905D
:103300000BE008B145F0010501200590049820B9B3
:10331000361D02E0049800B1361FB969089808F11B
:1033200001088847BBF1000FAAF1010A0290C9D039
:103330000999C1F80080C5E70298702808D0502884
:1033400006D0F96908988847BBF1000F14D04FE008
:10335000002002900120BBF1000F049009D0B96950
:10336000089808F101088847AAF10109B9F1000F8E
:1033700007DCF969089888476FF001000BB000F08E
:1033800013B92B2804D02D280CD14FF0FF30049016
:10339000B969089808F101088847A9F10109B9F14C
:1033A000000FE6DD411CE4D00A21FEF722FE0028D2
:1033B000DFDB029908F1010801EB810100EB41001C
:1033C0000290B969089888470A21FEF712FE099A07
:1033D000A9F10109B9F1000FC2F8008001DD002850
:1033E000E7DAF969089888470499029800FB0166B2
:1033F00055EA040004D004F04041090002D006E080
:10340000039898E0A40044EA9574AD00B61E04F059
:103410000041080002D16D196441761E159810F024
:10342000240F03D04FF00B095C4803E04FF028094C
:103430006FF07D008246564507DAAAEB0601894403
:10344000B9F1410F01DD4FF0410901200021A9F13F
:103450000102FDF7EDF9024628400B4621400843E2
:1034600001D0012100E00021501E029143F1FF3103
:1034700028402140084301D0012000E000200299AB
:10348000834651EA0B014FD0002108464FF000005F
:10349000039900F4400039B100EB80004FF4400183
:1034A00000EBD07001EA60008015012802DD4FF0CA
:1034B000FF3000E013D0401C36D0029860B3BBF15F
:1034C000000F0CD14A4601200021FDF7B1F9284038
:1034D0002140084301D0012000E00020E0B101209C
:1034E0004A460021FDF7A4F9034640190A46614106
:1034F0002D1A8C4111D3B9F1400F09DD159810F048
:10350000240F02D0AAF1340603E0AAF1170600E066
:10351000761C00254FF0004406E05B1E42F1FF32AE
:1035200020EA030521EA0204CAF10100B04206DAEA
:103530001B49039808430190002000900EE0039A75
:10354000C4F3D321E80A0A43164940EA44500A4327
:103550003146CDE9000268460EF038FF159810F0AC
:10356000240F0BD01598C00715D13868DDE900127B
:10357000031D3B600068C0E900120CE002A8694628
:103580000EF026FE1598C00705D13868029A011D75
:103590003960006802604046F0E6000002FCFFFF70
:1035A0000000F07F0000F03F30BCBDE8C08F00009D
:1035B0002DE9FF4F92461D4685B04FF00041DDE9F1
:1035C000124BDDE914727F1E01EA4B50414940F075
:1035D000FF4940EA0108002122F020004928049117
:1035E00002D04E2828D04CE03BA0012607C88DE829
:1035F0000700A9690698641C88477F1E014606D407
:103600001DF8060018B121F0200181420BD0E969B4
:1036100006988847032E34D0082E32D06FF0010070
:1036200009B000F05FB8761C032E01D0082EE0D15F
:10363000601CCAF80000DCE7A9690698641C88478A
:103640007F1E2AD420F02000412826D1A96906989F
:10365000641C88477F1E20D420F020004E281CD1F7
:10366000A9690698641C88477F1E48F4002849F41D
:103670008009CAF8004001D4282806D0E9690698D4
:1036800088475FEACB7012D022E0A9690698641CD3
:1036900088477F1E01D4002803DAE9690698884725
:1036A000BCE72928F1D1641CCAF80040E9E71BF007
:1036B000240F07D028680499031D2B600068C0E917
:1036C000001805E02868021D2A600068C0F8009014
:1036D0002046A5E70000F07F494E46494E4954591F
:1036E0000000000030BCBDE8C08F10B50446AFF349
:1036F00000802046BDE81040FCF738BF5FEA400C70
:1037000008BF91F0000F4FEA8C234FEAC12243EA31
:1037100051514FEA1C5018BF00F5F0404FEA3000FD
:1037200018BF41F000415FEA6C5C00F02980BCF1F9
:10373000FF3F08BF40F080407047130C06BF1204E3
:103740004FF0100C4FF0000C130E04BF12020CF1DE
:10375000080C130F04BF12010CF1040C930F04BFEB
:1037600092000CF1020CD30F04BF52000CF1010CBB
:1037700011464FF00002A0F11F00A0EB0C007047B3
:1037800011F0004F08BF704731F000413FF4D5AF52
:103790000B0C06BF09044FF0100C4FF0000C0B0E81
:1037A00004BF09020CF1080C0B0F04BF09010CF156
:1037B000040C8B0F04BF89000CF1020CCB0F04BF6B
:1037C00049000CF1010CCCF12003A0EB0C0022FA13
:1037D00003F302FA0CF241EA030100F10100704721
:1037E00020F07F4C80EA030023F07F47ACEB070317
:1037F00003F57C5300F0004003F1FF032DE98049FD
:103800004FEA154B09B44FEA144325EA0B4E24EA5C
:1038100003480FF2042606EB132749083E785FEAB7
:10382000320203FB0667C7F5000707FB06F64FEAFF
:1038300054374FEAD64606F1020607FB066CCCF178
:10384000005C4FEA1C472CEA074C07FB06F40CFB14
:1038500006F504EB15464FEA961634BF00204FF0EC
:1038600000404FEAD13706FB07FC4FEA1C4C0CFB2B
:103870000BF7D21B03FB0CF761EB07010CFB0EF7F8
:10388000B0EB074072EB17420CFB08F734BFA2EB1A
:103890000742B2EB074261EB17414FEA0C444FEA93
:1038A000910706FB07FC4FEA1C4C0CFB0BF7B0EB37
:1038B000C74072EB573203FB0CF734BFA2EBC74291
:1038C000B2EBC74261EB57310CFB0EF7B0EBC70010
:1038D00072EB57720CFB08F734BFA2EBC702B2EBD6
:1038E000C70261EB5771039F4FEA816141EA921170
:1038F00004EBCC044FEAD1374FEA826206FB07FCA7
:1039000042EA90124FEA80604FEA1C4C0CFB0BF726
:10391000D21B03FB0CF761EB07010CFB0EF7B0EBBE
:10392000074072EB17420CFB08F734BFA2EB0742CB
:10393000B2EB074261EB17414FEA8C554FEA910712
:1039400004EB9C2406FB07FC4FEA1C4C0CFB0BF71A
:10395000B0EBC74072EB573203FB0CF734BFA2EB5E
:10396000C742B2EBC74261EB57310CFB0EF7B0EB2D
:10397000C70072EB57720CFB08F734BFA2EBC7020B
:10398000B2EBC70261EB577115EB4C254FEA816131
:1039900041EA92114FEA82624FEAD13742EA90122D
:1039A00006FB07FC44F100044FEA80604FEA1C4C20
:1039B0000CFB0BF7D21B03FB0CF761EB07010CFBB5
:1039C0000EF7B0EB074072EB17420CFB08F734BF61
:1039D000A2EB0742B2EB074261EB174115EB1C1556
:1039E0004FEA813141EA92414FEA823242EA904203
:1039F0004FEA80304FEA0C7644F1000448EA034372
:103A00004EEA0B484FF0000EB2EB080C71EB0307C7
:103A100024BF624639464EEB0E0E4FF0000B0018E5
:103A2000524149414BEB0B0BB2EB080C71EB030716
:103A30007BF1000B24BF624639464EEB0E0E4FF071
:103A4000000B0018524149414BEB0B0BB2EB080C39
:103A500071EB03077BF1000B24BF624639464EEB46
:103A60000E0E51EA020718BF46F0010616EB0E765D
:103A700055F1000254F1000103D5BDE88901BDE80C
:103A80000088BDE88901BDE80048B619524141EB04
:103A90000101A3F10103704780807F7E7D7C7B7AEA
:103AA0007978777676757473727171706F6E6E6DEA
:103AB0006C6C6B6A6A696868676666656464636390
:103AC00062616160605F5F5E5E5D5D5C5C5B5B5A16
:103AD0005A59595858575756565555555454535383
:103AE00052525251515050504F4F4F4E4E4D4D4DDE
:103AF0004C4C4C4B4B4B4A4A4A4949494848484729
:103B00004747474646464545454444444443434366
:103B1000434242424241414146EA0646A3F57053C0
:103B20004FEA164646EA42564FEAD22242EA41524C
:103B300010B54FEAD121A3F1010300F02FF820F0D6
:103B4000004000F1020C00F0004701EB005011466C
:103B5000BCF5006F40EA070000D210BDBAF1000FBB
:103B60000AD01CB503B44FF004004FF004014FF02D
:103B700000000FBCBDE810404FF00001BBF1010F89
:103B8000B9BF04484FF0FF310348002140EA070065
:103B900010BD00BFFFFFEF7F0000F07F002B9C46B1
:103BA00030D477002BD01CB54FEA370703B44FF061
:103BB00010004FF01001BAF1000F06D0BCF1000F59
:103BC000DCBF40F0080040F008014FF000000FBCDF
:103BD000BDE810400BF1010BBBF1010F08BF5FEA1C
:103BE000170722BF12F1010211F101014FF000414C
:103BF00043F1000300F0004043EA00007047F9D3AE
:103C00005708D0E746EA064613F1400F4FEA16463A
:103C10001FDD13F1200FDFBF16430A4600212033BA
:103C20005B42BED0C3F1200746EA064602FA07F718
:103C30004FEA164646EA0706C3F1200722FA03F2C6
:103C400001FA07F721FA03F14FF0000342EA0702F5
:103C5000A7E746EA020646EA06464FEA164646EA5D
:103C60000106BCBF46EA0646360C4FF000034FF093
:103C700000024FF0000194E72DE9804C9A469346EC
:103C800070B491E8380007C831EA400C48BF34EA04
:103C9000430C03D5FFF7A4FDFFF780FFF0BCBDE8A0
:103CA000008C2DE9804C9A46934670B491E8380018
:103CB00007C831EA400C48BF34EA430C03D5FFF78C
:103CC0008FFDFFF729FFF0BCBDE8008C2DE9804C8B
:103CD0009A46934670B491E8380007C810F0804FB8
:103CE00008BF13F0804F03D100F01AF8FFF756FF1A
:103CF000F0BCBDE8008C2DE9804C9A46934670B428
:103D000091E8380007C810F0804F08BF13F0804FCB
:103D100003D100F005F8FFF7FFFEF0BCBDE8008C12
:103D200020F07F4780EA030023F07F4C07EB0C0371
:103D3000A3F57C5300F00040A3F1FE0392F0000FC6
:103D400000F0B38095F0000F00F077802DE9014975
:103D50004FEA11404FEA144621EA004800FB06FCF6
:103D600024EA064708FB06F607FB08F800FB07F7FE
:103D700018EB06484CEB164C4FEA124B18EB074871
:103D80004FEA15464CEB174022EA0B4E0BFB06FCA4
:103D900025EA06470EFB06F607FB0EFE0BFB07F7B0
:103DA0001EEB064E4CEB164C4FF000061EEB074E7A
:103DB0004CEB174B18EB0B0840F1000018EB0E0B07
:103DC00058EB000840F100008F1A4FF000013CBF93
:103DD000C943661B14BFB5EB040C00213CBFC943AB
:103DE000F61B4FEA17444EEA8E0E27EA04454FEAC7
:103DF0001C4704FB07622CEA074C05FB07F70CFB8A
:103E000005F604FB0CFC16EB074642EB174216EBDB
:103E10000C4642EB1C421BEB060658EB02024141EA
:103E200046EA9E0601D5BDE80189B619524141EB2B
:103E30000101A3F10103BDE801894FEA14454FEAEE
:103E4000114724EA054621EA074C05FB07F406FB67
:103E500007F70CFB06F105FB0CFC11EB074144EBEB
:103E600017444FEA124711EB0C4144EB1C4422EA81
:103E7000074C05FB07F206FB07F70CFB06F605FBF4
:103E80000CFC16EB074642EB174216EB0C4642EBD6
:103E90001C456A1854F1000148BF7047B6195241D9
:103EA00041EB0101A3F10103704795F0000F37D0FA
:103EB0004FEA11424FEA144721EA024624EA074C2E
:103EC00002FB07F106FB07F70CFB06F402FB0CFCF8
:103ED00014EB074441EB17414FEA154714EB0C4430
:103EE00041EB1C4125EA074C02FB07F506FB07F7EF
:103EF0000CFB06F602FB0CFC16EB074645EB1745E0
:103F000016EB0C4645EB1C42121951F1000148BF5B
:103F10007047B619524141EB0101A3F1010370470B
:103F20004FEA14454FEA114724EA054621EA074CB7
:103F300005FB07F106FB07F70CFB06F24FF0000646
:103F400005FB0CFC12EB074241EB174112EB0C4254
:103F500051EB1C4148BF7047921841EB0101A3F19E
:103F60000103704710B511F0EDFF002010BD0000F7
:103F70002DE9F047074689469046DDF820C000212C
:103F800000220024002600250020044602460146A7
:103F900045E0002601E0491C761C614502D2585CD0
:103FA0002028F8D0614500D13BE0ACEB01000228AD
:103FB00007D3585C0D2804D1481C185C0A2800D18E
:103FC0002CE0585C0A2800D128E01EB16FF02B00CD
:103FD000BDE8F087585C3D2806D1601C04460228E5
:103FE00002D96FF02B00F3E7585C7F2806DC585CA1
:103FF000DFF8E4A01AF800007F2802D16FF02B0050
:10400000E6E7585CDFF8D0A01AF80000402803DA91
:1040100014B16FF02B00DBE7521C00BF491C614557
:10402000B7D300BF1AB90020C8F80000D0E7D00805
:1040300000EB40004FEA400A02F0070000EB4000AE
:104040004000C01D0AEBD002121B0FB1914504D2F3
:10405000C8F800206FF02900BAE7032400200646C4
:1040600002463D4631E018780D2805D018780A2818
:1040700002D01878202800D125E01878DFF858A061
:104080001AF80000402801D1012000E00020241A85
:104090001878DFF844A01AF8000066F39F1006466F
:1040A000501C024604280DD1002214B1300C05F832
:1040B000010B012C02D9300A05F8010B022C01D9A1
:1040C00005F8016B00BF491E5B1C0029CBD1E81B22
:1040D000C8F8000000207BE79B3B05082DE9F04F66
:1040E00007468946099C00250026AC46A846AA46F4
:1040F00000211CB90020106000F092B80320B4FB2E
:10410000F0F04FF0030BB4FBFBFE0BFB1E4BBBF1BF
:10411000000F02D04FF0010B01E04FF0000B00EB5D
:104120000B06B6F1804F05D34FF0FF3010606FF0F3
:104130002900E1E7B600701C814500D327B9701C47
:1041400010606FF02900D7E70320B4FBF0F000EB1C
:1041500040060025394629E013F801CB13F8018BFE
:1041600013F801AB2D484FEA9C0B10F80B0001F837
:10417000010B4FEA0C1000EB281000F03F00DFF8B5
:104180009CB01BF8000001F8010B4FEA880000EB1F
:10419000AA1000F03F001BF8000001F8010B0AF024
:1041A0003F001BF8000001F8010BED1CB542D3D312
:1041B000A5422DD213F801CB681CA04202D213F8FD
:1041C000010B00E0002080461448CCF3850B10F86A
:1041D0000B0001F8010B4FEA0C1000EB281000F067
:1041E0003F00DFF838B01BF8000001F8010B681C35
:1041F000A04207D23F2000EA88001BF8000001F827
:10420000010B02E03D2001F8010B3D2001F8010BFC
:10421000C81B10600020087000BF6DE75B3B0508FD
:1042200030BCBDE8C08F000010B5024800F044FC6F
:1042300010BD00003C0C002010B5024800F03CFC12
:1042400010BD00003C0C002010B5024800F034FC0A
:1042500010BD00003C0C002010B5024800F02CFC02
:1042600010BD00003C0C002070B503460C46002138
:104270000BE04800401C34F810004E0034F8166083
:1042800040EA06401E683060491CB1EB520FF0D383
:1042900002F0010020B11D68480034F810002880A9
:1042A0001868006870BDF0B504460B46002113E0A5
:1042B00013F8210007068800401C185C47EA0047F5
:1042C0008800801C185C47EA00208F00FF1CDF5D1F
:1042D000384327683860491CB1EB920FE8D302F0ED
:1042E000030030B302F00300012803D113F82100CA
:1042F0002768387002F00300022808D18800401CAB
:10430000185C13F8217040EA07252668358002F012
:10431000030003280DD18800401C185C13F821709D
:1043200040EA0725266835808800801C185C2768CD
:10433000387020680068F0BD10B5024801F0A9F897
:1043400010BD00009413002010B5024801F0A1F840
:1043500010BD0000DC13002010B5024801F099F8F0
:1043600010BD0000500E002010B5024801F091F879
:1043700010BD0000980E002010B5024801F089F829
:1043800010BD00004C13002030B590F8444004F0FC
:104390001C050124AC40056C6C6004686360846893
:1043A000102C04D10468A2600468E16003E0046892
:1043B000A1600468E26030BD10B5012001F098FBF7
:1043C00010BD10B54FF4806001F092FB4FF4006017
:1043D00001F08EFB4FF4805001F08AFB4FF4005047
:1043E00001F086FB4FF4804001F082FB4FF4004067
:1043F00001F07EFB10BD10B5022001F079FB10BD6D
:1044000010B5042001F074FB10BD10B5082001F0B8
:104410006FFB10BD10B5102001F06AFB10BD10B588
:10442000202001F065FB402001F062FB802001F0BC
:104430005FFB4FF4807001F05BFB4FF4007001F004
:1044400057FB10BD704700001849087F012801D0B4
:10445000032811D100BF1649096841F40061144ACC
:1044600011601146096821F40061116000BF114616
:10447000096841F400711160022801D0032811D1AC
:1044800000BF0B49096841F48051094A1160114687
:10449000096821F48051116000BF1146096841F498
:1044A000806111600021014A117770478404002067
:1044B0000020024000F0010129B10B49496941F097
:1044C0000401094A516100F0020129B10649496914
:1044D00041F40041044A51610349496941F4803182
:1044E000014A5161704700000020024001F00102C2
:1044F00032B10F4A526922F400620D4B5A6105E055
:104500000B4A526942F40062094B5A61084A5269E7
:1045100060F3CA02064B5A611A46526942F002021F
:104520005A611A46526942F480325A61704700005B
:104530000020024010B50849496941F00101064CCC
:104540006161026000BF00BF00BFBFF36F8F00BF9B
:1045500000BF00BF436010BD00200240F0B502461E
:10456000402314460D460C4E766946F480260A4FC9
:104570007E6100BFEFF31086304672B600BF2E6832
:104580002660241D2D1D5E1EF3B2002BF7D100BF47
:1045900080F3108800BFF0BD0020024070B50546D2
:1045A00001F0C4FB064608E0681C30B101F0BEFB18
:1045B000801BA84201D3032070BD1948006900F494
:1045C00080300028F0D1164800694CF2FA3100EA38
:1045D0000104CCB11348406820431249486000BF31
:1045E00004F0404030B10E48806904F04041084377
:1045F0000B49886124F0404018B124F0404008493C
:10460000086100BF0120D7E70548006900F00100FC
:1046100020B100BF01200249086100BF0020CBE7A4
:104620000020024084040020014600201A4A12683B
:1046300002F48072BAB9194A128892B24FF6FF7327
:104640009A4202D14FF4801203E0144A12881204F5
:1046500092094FF0006303EB52028A4201D9012014
:1046600018E0022016E00D4A128892B24FF6FF734E
:104670009A4202D14FF4801203E0084A12881204D1
:1046800092094FF0006303EB52028A4201D90220E3
:1046900000E001207047000000000140E075FF1FAE
:1046A00001460020A1F10062D00A7047F0B504462F
:1046B0000D461E4694F8207020688368A86800B9EB
:1046C00000E000BF012F01D0022F7CD103F08060F9
:1046D00030B903F0006018B903F08050002873D09F
:1046E000C3F30161022905D9606A40F400006062E9
:1046F0000120F0BD012088403060A86860B9B5F89D
:1047000000C0E86840EA4C5C206800F5C07000EB2F
:104710000110C0F800C00FE0D5E901C040EACC00AC
:10472000D5F80CC040EA0C00D4F800C00CF5C07CF1
:104730000CEB011CCCF80000D5F810C0206800F587
:10474000C07000EB0110C0F804C0287D01280ED114
:10475000206800F5C07000EB0110406840F4807CD8
:10476000206800F5C07000EB0110C0F804C0D079DB
:10477000000692F806C040EA0C4092F805C040EAF4
:104780000C2C10794CEA000C206800F5C07000EB8E
:104790000110C0F80CC0D078000692F802C040EAC0
:1047A0000C4092F801C040EA0C2092F800C040EAA8
:1047B0000C00D4F800C00CF5C07C0CEB011CCCF84C
:1047C0000800206801E016E00FE000F5C07000EB83
:1047D0000110006840F0010C206800F5C07000EB8B
:1047E0000110C0F800C0002083E7606A40F40010A8
:1047F000606201207DE7606A40F4802060620120F1
:1048000077E7F0B504460A46216894F82050012D58
:1048100001D0022D74D1D1F8000240F00100C1F89E
:104820000002107D00F01F06012000FA06F3D1F807
:104830001C029843C1F81C02D069C8B9D1F80C0217
:104840009843C1F80C02908880B2968940EA0646E7
:1048500001F51070576940F83760108880B21689EA
:1048600040EA064601F51070576900EBC700466044
:10487000D069012819D1D1F80C021843C1F80C02F3
:10488000908880B2168840EA064601F51070576994
:1048900040F83760908980B2168940EA064601F5F3
:1048A0001070576900EBC7004660906928B9D1F8CD
:1048B00004029843C1F8040204E0D1F8040218434A
:1048C000C1F80402106928B9D1F814029843C1F85C
:1048D000140204E0D1F814021843C1F81402106A5B
:1048E000012804D1D1F81C021843C1F81C02D1F8E8
:1048F000000220F00100C1F800020020F0BDFFE737
:10490000606A40F4802060620120F7E770B50446D9
:104910002068406948F67F71084321684861606AF1
:1049200000F4FC3050B1606A20F4FC306062204634
:1049300020F04CFC054603212FF070FC70BD70B5D3
:10494000044694F82050012D01D0022D7DD151B99B
:104950002068C06800F0030080B9606A40F400106D
:104960006062012070BD2068006900F0030028B972
:10497000606A40F4001060620120F3E7206800F5EF
:10498000D87000EB0110006800F00400906090689F
:1049900040B9206800F5D87000EB01100068400DA8
:1049A000106007E0206800F5D87000EB0110006887
:1049B000C0085060206800F5D87000EB0110006856
:1049C00000F00200D060206800F5D87000EB011004
:1049D000406800F00F001061206800F5D87000EB0F
:1049E0000110406800F47F40000A9061206800F5E3
:1049F000D87000EB01104068000C5061206800F591
:104A0000D87000EB011080681870206800F5D8702D
:104A100000EB0110806800F47F40000A58702068A5
:104A200000F5D87000EB0110806800F47F00000CE6
:104A30009870206800F5D87000EB01108068000EB7
:104A4000D870206800F5D87000E02FE000EB01106E
:104A5000C0681871206800F5D87000EB0110C068BC
:104A600000F47F40000A5871206800F5D87000EB10
:104A70000110C06800F47F00000C9871206800F5F8
:104A8000D87000EB0110C068000ED87131B92068F1
:104A9000C06840F020002668F06005E020680069EA
:104AA00040F020002668306100205BE7606A40F437
:104AB00080206062012055E72DE9F05F0446002563
:104AC000206846692068D0F80490206887682068CC
:104AD000D0F80CA02068D0F810B02068D0F818806A
:104AE00006F00100002855D007F00100C0B10120F8
:104AF0002168886007F0020018B1204600F0D0FA63
:104B00000EE007F0040010B145F4006508E007F07E
:104B1000080010B145F4805502E0204600F0B6FAD6
:104B200007F48070C8B14FF480702168886007F482
:104B3000007018B1204600F0CDFA0EE007F4806056
:104B400010B145F4005508E007F4006010B145F4D9
:104B5000804502E0204600F0B3FA07F48030C8B187
:104B60004FF480302168886007F4003018B1204687
:104B700000F0CAFA0EE007F4802010B145F40045B9
:104B800008E007F4002010B145F4803502E020462B
:104B900000F0B0FA06F0080038B10AF0100020B1B9
:104BA00045F4007510202168C86006F0040040B18B
:104BB0000AF0080028B108202168C860204600F0EB
:104BC000BBF906F0020038B12068C06800F00300AD
:104BD00010B1204600F0B1F906F0400038B10BF0FA
:104BE000100020B145F4806510202168086106F0AE
:104BF000200040B10BF0080028B1082021680861AE
:104C0000204600F0D6F906F0100038B1206800699F
:104C100000F0030010B1204600F0CCF906F400309B
:104C200040B109F0100028B11020216848602046EA
:104C300000F0FCF906F4803040B109F0080028B11A
:104C4000082021684860204600F06EFA06F4004013
:104C500088B309F0040078B306F4807020B108F03E
:104C6000010008B145F0010506F4007020B108F01C
:104C7000020008B145F0020506F4806020B108F09A
:104C8000040008B145F0040506F40060A0B108F086
:104C9000700088B108F07000402817D006DC10289A
:104CA0000BD020280CD0302819D10CE0502810D07F
:104CB000602814D110E01DE019E045F008050FE070
:104CC00045F010050CE045F0200509E045F04005F1
:104CD00006E045F0800503E045F4807500E000BF84
:104CE00000BF2068806920F070002168886104207E
:104CF000216848602DB1606A284360622046FFF752
:104D000005FE00F000B830BCBDE8C09F70B5044699
:104D10000CB9012070BD94F8200010B9204600F0B5
:104D2000AFF82068006820F002002168086000F0F9
:104D3000FDFF05460DE000F0F9FF401B0A2808D9E9
:104D4000606A40F400306062052084F82000012091
:104D5000E0E72068406800F002000028EBD12068FE
:104D6000006840F001002168086000F0DFFF0546A0
:104D70000DE000F0DBFF401B0A2808D9606A40F410
:104D800000306062052084F820000120C2E720681E
:104D9000406800F001000028EBD0207E012806D1F9
:104DA0002068006840F080002168086005E0206805
:104DB000006820F0800021680860607E012806D12C
:104DC0002068006840F040002168086005E0206825
:104DD000006820F0400021680860A07E012806D10C
:104DE0002068006840F020002168086005E0206825
:104DF000006820F0200021680860E07E012806D1CC
:104E00002068006820F010002168086005E0206834
:104E1000006840F0100021680860207F012806D15A
:104E20002068006840F008002168086005E02068FC
:104E3000006820F0080021680860607F012806D122
:104E40002068006840F004002168086005E02068E0
:104E5000006820F0040021680860D4E902010843DA
:104E600021690843616908436168491E0843216854
:104E7000C86100206062012084F82000002049E71A
:104E800010B586B00446142101A8FCF7F8FA2749AA
:104E90002068884248D100BF2548806D40F00070EE
:104EA000234988650846806D00F00070009000BFBF
:104EB00000BF00BF0846C06C40F00800C864084648
:104EC000C06C00F00800009000BF00BF03200190FC
:104ED00002200290002003900320049009200590F6
:104EE00001A9144800F012FE00221146132001F01F
:104EF000D1F9132001F0BAF900221146142001F073
:104F0000C9F9142001F0B2F900221146152001F070
:104F1000C1F9152001F0AAF900221146162001F06E
:104F2000B9F9162001F0A2F906B010BD00640040E6
:104F300000100240000C0048704770B5044620463F
:104F400020F044F905462068406920F002002168FD
:104F500048612068406920F00400216848612068A9
:104F6000406920F00800216848612068406920F00D
:104F70001000216848612068406920F02000216805
:104F800048612068406920F0400021684861D5F8F8
:104F9000140200B970BD00222846D5F8141242F060
:104FA000C3FC0020C5F8140228462FF0B1F800BF5A
:104FB000F0E7704770B50446204620F007F9054633
:104FC0002068406920F0020021684861206840693B
:104FD00020F00400216848612068406920F0080042
:104FE000216848612068406920F01000216848610C
:104FF0002068406920F020002168486120684069ED
:1050000020F0400021684861D5F8140200B970BD55
:1050100001222846D5F8141242F086FC0020C5F87B
:10502000140228462FF074F800BFF0E7704770B5FF
:10503000044694F82000012822D1022084F82000A0
:105040002068006820F001002168086000F06EFE12
:1050500005460DE000F06AFE401B0A2808D9606A88
:1050600040F400306062052084F82000012070BD0B
:105070002068406800F001000028EBD16062F6E78C
:10508000606A40F4002060620120F0E770B50446D9
:10509000204620F09BF8054603212FF0BFF870BD95
:1050A00070B504462068406920F00100216848611D
:1050B000204620F08BF8054602212FF0AFF870BD96
:1050C00070B50446204620F081F8054603212FF0F4
:1050D000A5F870BD70B504462068406920F0010055
:1050E00021684861204620F071F8054602212FF022
:1050F00095F870BD70B50446204620F067F8054667
:1051000003212FF08BF870BD70B50446206840690C
:1051100020F0010021684861204620F057F805463C
:1051200002212FF07BF870BD704770B503460C4626
:1051300000201F2100BF0D1EA1F1010106D001F0CA
:105140001F060125B5402540002DF4D08AB1082A5C
:105150000BD0102A05D0182A0CD1072900D3012022
:105160000AE0082900D3012006E0102900D301201D
:1051700002E001E0012000BF00BF40B91D686C6182
:105180001D68AD6825F0180515431E68B56070BD33
:105190002DE9F04104460E4617464FF00008022064
:1051A0006077206A012810D0022815D003281AD170
:1051B000002504E056F82500216808606D1CBD42FA
:1051C000F8D32068D0F800800EE03A4631462046F9
:1051D000FFF769F8804607E03A4631462046FFF778
:1051E00043F8804600E000BF00BF012060774046E2
:1051F000BDE8F08110B504460CB9012010BD607FF8
:10520000022800D1FAE7022060772068806840F029
:1052100001002168886020680079002021680871F9
:10522000204600F04DF80020607700BF207700BFD7
:1052300000BFE3E70146487F7047000010B5044611
:105240000CB9012010BD607F20B9002020772046D6
:1052500000F046F802206077207948B917482168A5
:1052600048612068806820F018002168886007E0A5
:105270002046D4E90212FFF758FF08B10120E1E708
:10528000607920B94FF0FF302168086102E02168A1
:10529000206908612068806820F060006169084327
:1052A000216888602068806820F08000A169084338
:1052B00021688860012060770020C3E7B71DC10422
:1052C000054A0168914205D10449896C21F4805155
:1052D000024A916470470000003002400010024012
:1052E00008B5094A016891420DD100BF0749896C90
:1052F00041F48051054A91641146896C01F4805152
:10530000009100BF00BF08BD003002400010024005
:105310000146002291F82500022808D00420C86325
:1053200000BF002081F8240000BF012070470868FA
:10533000006820F00E000B6818600868006820F014
:1053400001000B68186091F8440000F01C03012074
:1053500098400B6C5860012081F8250000BF0020A8
:1053600081F8240000BF1046E0E770B50446002530
:1053700094F82500022803D00420E063012520E0F2
:105380002068006820F00E0021680860206800682E
:1053900020F001002168086094F8440000F01C012E
:1053A00001208840216C4860012084F8250000BF5E
:1053B000002084F8240000BFA06B10B12046A16B30
:1053C0008847284670BD0000014609B90120704792
:1053D0000868006820F001000A681060294A08681F
:1053E00090420BD2284A0868801A1422B0FBF2F0CF
:1053F000800048642448083808640AE0214A0868A4
:10540000801A1422B0FBF2F0800048641D4808386E
:10541000086400200A68106091F8440000F01C0243
:10542000012090400A6C5060174A083A086C90427C
:105430000DD1D0F8A80091F8442002F01C030F22EF
:105440009A409043104A083AC2F8A8000CE00D4870
:10545000A030006891F8442002F01C030F229A400B
:105460009043084AA03210600020C8620863486375
:105470008863C86381F8250000BF81F8240000BF5D
:1054800000BFA4E708040240080002400146C86BC0
:10549000704770B50446206C05682068066894F86B
:1054A000440000F01C01042088402840E0B106F0D0
:1054B0000400C8B12068006800F0200028B9206806
:1054C000006820F004002168086094F8440000F0AF
:1054D0001C0104208840216C4860206B002856D0B5
:1054E0002046216B884752E094F8440000F01C01EC
:1054F00002208840284018B306F0020000B320685C
:10550000006800F0200040B92068006820F00A0020
:1055100021680860012084F8250094F8440000F018
:105520001C0102208840216C486000BF002084F8E4
:10553000240000BFE06A50B32046E16A884726E0B5
:1055400094F8440000F01C01082088402840F0B185
:1055500006F00800D8B12068006820F00E0021682D
:10556000086094F8440000F01C0101208840216C80
:1055700048600120E06384F8250000BF002084F823
:10558000240000BF606B10B12046616B884770BD7E
:1055900010B5014609B9012010BD3E4B086898427C
:1055A0000BD23D4B0868C01A1423B0FBF3F0800007
:1055B00048643948083808640AE0364B0868C01A5D
:1055C0001423B0FBF3F080004864324808380864C4
:1055D000022081F825000868026847F6F0708243CF
:1055E000D1E9020318430B6918434B6918438B69CF
:1055F0001843CB6918430B6A1843024308680260DA
:105600008868B0F5804F3AD0234B083B086C98422D
:105610001BD1D0F8A80091F8443003F01C040F23EC
:10562000A34098431C4BA033186091F8443003F01A
:105630001C0348689840184B083BD3F8A83018431F
:10564000154B083BC3F8A80019E01248A0300068C9
:1056500091F8443003F01C040F23A34098430D4BF2
:10566000A033186091F8443003F01C034868984058
:10567000084BA0331B681843064BA033186000206A
:10568000C863012081F82500002081F8240000BFB4
:1056900082E7000008040240080002402DE9F041C2
:1056A00004460D4616461F464FF0000800BF94F80A
:1056B0002400012802D10220BDE8F081012084F8F5
:1056C000240000BF94F8250001282CD1022084F882
:1056D00025000020E0632068006820F001002168B8
:1056E00008603B46324629462046FEF74DFE206BB9
:1056F00030B12068006840F00E00216808600BE0BF
:105700002068006820F004002168086020680068B4
:1057100040F00A00216808602068006840F001003D
:105720002168086006E000BF002084F8240000BF64
:105730004FF002084046BFE770B5044600F0F6FAA5
:1057400006462546681C10B104480078054400BF91
:1057500000F0ECFA801BA842FAD370BD8004002050
:1057600070B50C460568C5F30043057805F01F06C3
:10577000012505FA06F2024D05EB43110A6070BDE2
:10578000140401402DE9F04104460F4600BF3F4894
:105790000078012802D10220BDE8F08101203B49B8
:1057A000087000BF4CF25030FEF7F8FE0646002E9F
:1057B00064D1364948603648006800F40070B8B1DA
:1057C0003348006820F400703149086008460068DA
:1057D00000F4806040B10846006820F480600860F2
:1057E00003202A49087715E001202849087711E0AD
:1057F0002748006800F4806048B12548006820F41C
:1058000080602349086002202049087702E00020D8
:105810001E490877206801280FD16068FEF74AFE0C
:105820004CF25030FEF7BAFE06461948406948F27D
:1058300004018843164948611EE04FF0FF3038608C
:10584000A56813E028466168FEF750FE4CF2503020
:10585000FEF7A4FE06460E48406940F2FA718843FE
:105860000B4948610EB13D6005E06D1CD4E90201B1
:105870000844A842E6D800BFFEF7E6FD00BF0020BE
:105880000249087000BF304686E70000840400200B
:10589000002002400348406940F00040014948614F
:1058A00000207047002002402DE9F047044688465A
:1058B00015461E464FF0000900BF29480078012810
:1058C00002D10220BDE8F08701202549087000BF01
:1058D0004CF25030FEF762FE0746002F38D12049C7
:1058E00048602048006800F4806048B11D480068A6
:1058F00020F480601B49086002201949087702E003
:105900000020174908773CB92A4633464046FEF73F
:1059100011FE4FF001090BE0012C01D0022C07D140
:1059200029464046FEF71AFE022C01D14FF4802989
:105930004CF25030FEF732FE0746B9F1000F05D0A9
:105940000848406920EA090006494861FEF77CFDE5
:1059500000BF00200249087000BF3846B2E70000CF
:10596000840400200020024000200849496901F019
:10597000004151B10649054A9160064991601146BE
:10598000496901F0004101B1012070470020024047
:1059900023016745AB89EFCDF0B50B46002187E0C9
:1059A00001258D4005EA0302002A7DD0434D8E0873
:1059B00055F826408D072E0F0F25B5402C40B0F12D
:1059C000904F01D100251EE03D4DA84201D1012597
:1059D00019E03C4DA84201D1022514E03A4DA842FD
:1059E00001D103250FE0394DA84201D104250AE079
:1059F000374DA84201D1052505E0364DA84201D119
:105A0000062500E007258E07360FB540A54221D1B7
:105A1000314D2D689543304E3560351D2D689543C9
:105A2000361D3560351D2D689543361D3560351D95
:105A30002D689543361D35608D072E0F0F2505FA0D
:105A400006F41E4D8E0855F82650A5431B4E8F08B0
:105A500046F8275005684F000326BE4035430560D1
:105A6000CE0800F1200555F826504E07F70E0F26F8
:105A7000BE40B543CF0800F1200646F827508568A0
:105A80004F000326BE40B5438560466801258D4022
:105A9000AE434660C5684F000326BE40B543C560AF
:105AA000C56A01268E4000E001E0B543C562491C8D
:105AB00023FA01F5002D7FF473AFF0BD080001401B
:105AC0000004004800080048000C0048001000488E
:105AD00000140048001800480004014070B5044656
:105AE000204616F0FBFE05463AF008FE70BD0000A9
:105AF00010B5044604480068204020B10248046004
:105B00002046FFF7EBFF10BD1404014078B50346B3
:105B10000022E5E0012696400D6805EA0604002C07
:105B20007DD04D68012D08D04D68022D05D04D68FF
:105B3000112D02D04D68122D13D1986856000325FF
:105B4000B540A8435600CD68B540284398605868D2
:105B500001259540A8430D79C5F3001595402843CC
:105B600058600D7905F00305032D09D1D86A012588
:105B70009540A8430D79C5F3C00595402843D862E8
:105B8000D86856000325B540A84356008D68B54037
:105B90002843D8604D68022D02D04D68122D13D1D4
:105BA000D60803F1200555F826005507EE0E0F25FF
:105BB000B540A8435607F60E0D69B5402843D608F0
:105BC00003F1200545F82600186856000325B54066
:105BD000A8430D7905F003055600B5402843186029
:105BE0004D6805F08055B5F1805F78D100BF3F4D1D
:105BF0002D6E45F001053D4E356635462D6E05F09E
:105C00000105009500BF00BF4FEAB635960855F86C
:105C1000260095072E0F0F25B540A84300E05EE053
:105C2000B3F1904F01D100251EE0314DAB4201D1BF
:105C3000012519E02F4DAB4201D1022514E02E4D74
:105C4000AB4201D103250FE02C4DAB4201D104251D
:105C50000AE02B4DAB4201D1052505E0294DAB42B1
:105C600001D1062500E007259607360FB5402843E9
:105C7000254D960845F82600244D2868A0434D6818
:105C800005F48035B5F5803F00D120431F4D2860D5
:105C90002D1D2868A0434D6805F40035B5F5003F7B
:105CA00000D12043194D2D1D28602D1D2868A043CB
:105CB0004D6805F48015B5F5801F00D12043134DC4
:105CC000083528602D1D2868A0434D6805F400158F
:105CD000B5F5001F00D120430C4D0C352860521C37
:105CE0000D68D540002D7FF415AF78BD001002403F
:105CF0000004004800080048000C0048001000485C
:105D00000014004800180048080001400004014049
:105D1000024613690B400BB1012000E000207047E0
:105D20000AB1816100E081627047000070B50948E6
:105D3000006860B10848006808490968A0FB01458F
:105D40000748026820462946FAF785FD70BD0248DB
:105D50000068FBE718030020780400201C030020E3
:105D60002003002001480068704700009075FF1F65
:105D700001480068704700009475FF1F70B5044625
:105D80000CB9012070BD4CF6CC402168086045F28A
:105D9000555021680860D4E9001048602168A06867
:105DA0008860FFF7C3FF054606E0FFF7BFFF401B13
:105DB000302801D90320E5E72068C0680028F4D125
:105DC00020680169E068814203D02168E0680861C9
:105DD00003E04AF6AA20216808600020D2E70146C5
:105DE0004AF6AA200A68106000207047034800683D
:105DF0000349097808440149086070477804002085
:105E00008004002010B50024032000F085FA002053
:105E100000F008F808B1012401E000F0E5F920469F
:105E200010BD000070B50446002511480078D8B1B7
:105E30000F4800784FF47A71B1FBF0F00D49096812
:105E4000B1FBF0F6304604F0C1FE58B9102C07D271
:105E500000222146501E00F01DFA0748046004E0AD
